:020000040800F2
:10000000200B0020790200089D2E0008952E000884
:10001000992E0008311D0008A131000800000000E1
:10002000000000000000000000000000C92E0008D1
:10003000351D0008000000009F2E0008CB2E000890
:10004000930200089302000893020008930200083C
:10005000930200089302000893020008930200082C
:10006000930200089302000893020008930200081C
:10007000930200089302000893020008930200080C
:1000800093020008930200089302000893020008FC
:1000900093020008930200089302000893020008EC
:1000A00093020008930200089302000893020008DC
:1000B00093020008930200089302000893020008CC
:1000C00093020008930200089302000893020008BC
:1000D000930200089131000893020008930200087F
:1000E000930200089302000893020008930200089C
:1000F000930200089302000893020008930200088C
:10010000930200089302000893020008930200087B
:10011000930200089302000893020008930200086B
:10012000930200089302000893020008930200085B
:1001300000F002F800F090F80AA090E8000C824469
:100140008344AAF10107DA4501D100F085F8AFF246
:10015000090EBAE80F0013F0010F18BFFB1A43F0A5
:1001600001031847804A0000A04A0000103A24BF4B
:1001700078C878C1FAD8520724BF30C830C144BF0C
:1001800004680C607047000000230024002500264E
:10019000103A28BF78C1FBD8520728BF30C148BFEA
:1001A0000B6070476E2900F05183702900F0778151
:1001B000662904F0F882652904F0F582672904F0C5
:1001C000F282612904F0F18203681B0A28BF41F022
:1001D0008001692900F0E880642900F0E580752934
:1001E00000F0E2806F2900F05084782900F043810C
:1001F000E92900F0EB83E42900F0E883F52900F019
:10020000E583EF2900F04D84F82900F0428103686E
:10021000DB0928BF41F08001632900F05A8373296C
:1002200000F05F83E32901F05980F32901F05E803B
:10023000002070471FB501F0B3F804000020002132
:1002400003F07CFF401C60600020002103F060FF91
:10025000E0601FBD10B510BD01F074F81146FFF746
:10026000E9FF03F0A5FA01F051F903B4FFF7F2FF3B
:1002700003BC03F0A2F80000094880470948004782
:10028000FEE7FEE7FEE7FEE7FEE7FEE7FEE7FEE746
:10029000FEE7FEE704480549054A064B70470000A3
:1002A000D32E00083101000820050020200B00207B
:1002B0002007002020070020704700007CB51D4665
:1002C00016460C00009001D02044401E074B7B4492
:1002D0002A4669460190304600F0D1FA05461CB125
:1002E0000020694600F0DEFA28467CBDDD050000EE
:1002F0000FB4044910B503AA029800F0F7FA10BC35
:100300005DF814FB0800002070B50446856900689C
:10031000C10601D5302600E02026C00707D070BDF9
:10032000D4E9012130469047206A401C20626D1EAE
:10033000F6D570BD70B5044685690078C00707D151
:1003400070BDD4E9012120209047206A401C206222
:100350006D1EF6D570BD70B50C460546012A05D058
:100360002878800600D5EA69002302E0012305E031
:100370005B1C934202D2E05C0028F9D1A869E61820
:10038000C01AA861286A184428622846FFF7BCFFF3
:1003900004E0D5E9012114F8010B9047B442F8D3E9
:1003A0002846FFF7C7FF70BD2DE9F041064600243F
:1003B00010687529314616A510D000F0DCF9002828
:1003C00002DA404213A507E031688A0701D512A579
:1003D00002E0490704D511A5012401E000F0D4F999
:1003E00000210A2206F1240709E0B0FBF2FCB0FB71
:1003F000F2F302FB1C00303078541846491C0028E8
:10040000F3D123462A463046BDE8F04100F0C5B995
:10041000000000002D0000002B0000002000000064
:10042000F0B40D460188090502D5214C7C4402E058
:100430001F4C7C440E34002100F1240608E002F039
:100440000F071209E75D42EA03721B097754491C42
:1004500052EA0307F3D102780023120704D5702D66
:1004600006D009B1022311342246F0BC00F095B940
:1004700001231034F8E770B504460D462146106894
:1004800000F082F9024629462046BDE8704000236C
:10049000C6E7D21D22F00703D3E90023C0E70368B3
:1004A000126843F0200303600823C3610023B7E709
:1004B000764400002DE9F05F894604464FF0000ABB
:1004C000DFF874B1FB44C0F820A02046E1688847FB
:1004D000002874D0252806D0D4E901219047206A4D
:1004E000401C2062F1E700265F462046E16888470D
:1004F0002028054607DB312D05D2781910F8200C8D
:1005000008B10643F1E7B00701D526F00406C4F8A8
:100510001CA00027C4F818A02A2D09D0284602F0F4
:1005200045FF38B304EB8708303DC8F8185019E090
:1005300059F8041B204604EB87029161E168884763
:10054000012F054618D1E069002820DA26F02006A0
:100550001DE0D8F8180000EB800005EB40003038B3
:10056000C8F818002046E1688847054602F01EFFDB
:100570000028EED1012F0AD02E2D08D12046E168A7
:1005800088477F1C0546022F46F02006C4DBA06981
:10059000002803DA404246F00106A061F00701D0CE
:1005A00026F010066C2D0BD0682D09D04C2D39D0BB
:1005B0006A2D35D0742D35D07A2D33D016E038E041
:1005C000E1682F4620468847B842054609D16C2F7E
:1005D00026D04FF48060E1680643204688470546F0
:1005E00004E06C2F1AD04FF4807006430DB3A5F1D0
:1005F0004100192802D8203546F400664A462946AB
:10060000204626604E46FFF7CDFD80B101280BD075
:10061000F61D26F0070000F1080956E74020E4E740
:100620008020D8E70020D6E706F104094DE72846E8
:1006300052E7206ABDE8F09F06440000032A40F21A
:10064000308010F0030C00F0158011F8013BBCF174
:10065000020F624498BF11F801CB00F8013B38BF8C
:1006600011F8013BA2F1040298BF00F801CB38BF9A
:1006700000F8013B11F0030300F01E82083AC0F0BD
:10068000088051F8043B083A51F804CBA0E8081060
:10069000F5E7121D5CBF51F8043B40F8043BAFF393
:1006A0000080D20724BF11F8013B11F801CB48BFED
:1006B00011F8012B24BF00F8013B00F801CB48BF23
:1006C00000F8012B70474FF000020429C0F012809F
:1006D00010F0030C00F01B80CCF1040CBCF1020FF5
:1006E00018BF00F8012BA8BF20F8022BA1EB0C01CA
:1006F00000F00DB85FEAC17C24BF00F8012B00F8C0
:10070000012B48BF00F8012B70474FF0000200B5E5
:10071000134694469646203922BFA0E80C50A0E824
:100720000C50B1F12001BFF4F7AF090728BFA0E8D2
:100730000C5048BF0CC05DF804EB890028BF40F89E
:10074000042B08BF704748BF20F8022B11F0804FE0
:1007500018BF00F8012B704770477047704770470B
:1007600010B500F0DBF9006810BD10B5044600F0CC
:10077000D5F9046010BD09684A0501D540B270473B
:10078000C905FCD500B2704709684A0501D5C0B259
:100790007047C905FCD580B270472DE9F0470D467A
:1007A00099469246044600F124080168880604D55B
:1007B000E06921F01001216000E00120A84201DD84
:1007C000471B00E00027A1697A1902EB0900081A0B
:1007D000A0612078C00602D42046FFF795FD0026D0
:1007E00008E0D4E901211AF806009047206A401C6D
:1007F000761C20624E45F4DB2078C0060AD52046E0
:10080000FFF782FD06E0D4E9012130209047206AFD
:10081000401C2062381EA7F10107F4DC07E0D4E990
:10082000012118F805009047206A401C2062281E0C
:10083000A5F10105F3DC2046FFF77CFD20780006DA
:1008400002D50220BDE8F0870120FBE711680268AD
:10085000006A530501D508700AE0D30501D5088068
:1008600006E0130603D5C217C1E9000200E00860E4
:100870000120704701694A1C02610878704700B581
:100880008FB0CDE901310021059105497944CDE9C9
:10089000031011466846FFF70DFE0FB000BD0000C3
:1008A000E5FFFFFF0A6802F8010B0A607047D1E913
:1008B00000239A4202D2531C0B601070704710B58F
:1008C000436913B1AFF3008001E0FFF744FD01205D
:1008D00010BD127800F124010A7000224A70012232
:1008E000EDE711684FF0FF32E9E70000074B70B504
:1008F0000D467B44FFF7C3FF0446284600F0FAFC90
:1009000010B14FF0FF3070BD204670BD132D0000B8
:100910002DE9FF5F15468A460446DFF8AC80F844AF
:100920000027D8E900103E46CDE9001010E03AF863
:1009300016106A4602A800F0E1FC411C07D021789D
:10094000890603D5E269391891420DD80744761C0F
:100950002078800602D5E069B84205DDAE42E6DBCC
:100960003AF816000028E2D1A069C01BA061204619
:10097000FFF7CAFCD8E90010CDE90010002017E00D
:100980003AF818106A4602A800F0B8FCB0F1FF3F30
:1009900081460BD000250DF1080B05E0D4E90121BB
:1009A0001BF8050090476D1C4D45F7D308F1010079
:1009B000B0428046E4DB206A384420622046FFF7DC
:1009C000B9FCBDE8FF9F0000BE3F00002DE9F041EB
:1009D0008046D21D22F007020025D2E90002F52947
:1009E00015A614D0011E72F1000106DA0023D0EB27
:1009F000030063EB020211A608E0D8F800108B0791
:100A000001D50FA602E0490701D50EA60125114622
:100A1000002408F1240704E000F084F830323A554D
:100A2000641C50EA0102F7D12B463246214640466B
:100A3000BDE8F041FFF7B1BE000000002D0000004E
:100A40002B0000002000000030B4002100F124043D
:100A500008E002F00705D208303542EA4372DB08AD
:100A60006554491C52EA0305F3D10468002310A21F
:100A7000250707D5A40600D421B1C46901230DA21E
:100A8000641EC46130BCFFF788BE10B50446214621
:100A90001068FFF779FE02462046BDE810400023AB
:100AA000D2E7D21D22F00701D1E90023CCE70000F4
:100AB000000000003000000010B5203AC0F00B80AC
:100AC000B1E81850203AA0E81850B1E81850A0E852
:100AD0001850BFF4F5AF5FEA027C24BFB1E81850AC
:100AE000A0E8185044BF18C918C0BDE810405FEA1C
:100AF000827C24BF51F8043B40F8043B08BF704798
:100B0000D20728BF31F8023B48BF11F8012B28BF9C
:100B100020F8023B48BF00F8012B7047004870479F
:100B2000BC04002030B5B0F10A024FEA900E71F11A
:100B300000034EEA817EB0EB0E0061EB91014FEABB
:100B4000101E4EEA017E10EB0E0041EB11114FEA30
:100B5000102E4EEA016E10EB0E0041EB11214FEA10
:100B6000104E4EEA014E10EB0E0041EB11414018C1
:100B700041F100014FEAD00040EA41704FEAD10153
:100B800010EB80054FEA810444EA907444EB0104C1
:100B90006D1944EB0404521BA3414FF0000348BFFE
:100BA0000A3200D530BD401C41F1000130BD704714
:100BB0002DE9FF4F0C461E464FF0FF378BB0D2E9B0
:100BC0000001DDF860800A908A46C1F30A5505B934
:100BD0003D46002108464FF00000BAF1000F00F436
:100BE000400005DA00EB80004FF4400101EA5000BC
:100BF0004FEA9059B9F1010F00DDB9460A9850EA61
:100C00004A000ED044F61050A5F2FF3545432F148C
:100C1000B8F1000F1ED07542291E1EDDC9F1000279
:100C20001CE0B8F1010F4FF0000001D0302103E0CB
:100C3000F24305E02154401CB042FBDB3046002269
:100C4000002121540B99C1F80880C1E900200FB0A0
:100C5000BDE8F08FBD1B6D1CDEE74A4600DA694235
:100C600006A800F0E1FB06AB93E8070003AB83E8BE
:100C7000070050460A9900F093FC8DE80700A0F5A4
:100C800000501F3800900398002D0ADD42F21F012A
:100C90004A460844002303A90390684600F0FCFE7E
:100CA00009E0A0F500504A461F38002303A903902D
:100CB000684600F006FF8DE807000004000C03D032
:100CC0004FF0FF30410800E01046B8F1000F03D0AC
:100CD0000022009215461EE0751E05D4FFF722FF84
:100CE000303262556D1EF9D5B3460122084302D059
:100CF00000227F1C04E02078302801D100227F1ED2
:100D0000002A099784D01DE0112D07DAFFF70AFFAA
:100D1000303262556D1C50EA0102F5D1084302D011
:100D20000098C8B10EE00021681E05E0235C625CFB
:100D300063542254401E491C8142F7DBAB46A81B7A
:100D4000401E0990002004F80B000B98099AC0F887
:100D50000880C0E9002B7AE711264FF0000857E71A
:100D60002DE9F04F88460446D21D22F0070191B0CC
:100D7000D1E90001CDE90A0102F014FA02460B980C
:100D8000C00F01D02D2007E02068810701D52B205E
:100D900002E0202101EAC000032A099001D0072ABD
:100DA00005DB03464146204600F0FEFA0BE12078C1
:100DB000800601D5E06900E00620B8F1650F8146A4
:100DC00006D0B8F1660F18D0B8F1670F70D131E0D6
:100DD0000020B9F1110F009001DB112301E009F1AE
:100DE00001030AAA01A90CA8FFF7E2FEDDE90C70D5
:100DF000002609F10105834647E001204B4600909B
:100E00004FF000470AAA01A90CA8FFF7D1FEDDE9BF
:100E10000DB00C995D46002610B909F101000D18BE
:100E2000B9EB050003D4C0F1FF3609F10105A5EBCC
:100E300009002BE0B9F1010F01DA4FF001090020A0
:100E4000B9F1110F0090484601DD112300E003467F
:100E50000AAA01A90CA8FFF7ABFEDDE90C704D460C
:100E600000268346207800070AD4AB4500DA5D46A9
:100E700001A8012D04DD411911F8011C302907D00A
:100E80004F4502DA17F1040F04DA012082460FE021
:100E90006D1EEEE7002F02DCED1B3E4403E0781CE4
:100EA000A84200DD7D1CB81B00F1010A4FF000478D
:100EB0002078000703D4AA4501DB4FF0FF3A002158
:100EC000B7F1004F0DF143088DF8431024D00220F4
:100ED0002B23002F01DA7F422D230A21021EA0F1CD
:100EE000010000DC5FB197FBF1FC97FBF1F201FB25
:100EF0001C7C17460CF1300C08F801CDEEE7A8F188
:100F0000010003702188090501D5452100E0652114
:100F1000A0F1010800F8011C09980FA9A1EB08072E
:100F2000FF1D00B10120411901EBEA70A1693844AD
:100F3000081A401EA0612078C00602D42046FFF7A0
:100F4000E3F9099828B1D4E901219047206A401CAF
:100F500020622078C00622D52046FFF7D5F91EE092
:100F6000002E04DBB34502DD01A8805D00E03020E7
:100F7000D4E901219047206A401C2062761CAAF126
:100F800001005FEA000A0AD100F00AFAC0680168AD
:100F9000405CD4E901219047206A401C2062281E51
:100FA000A5F10105DCDC07E0D4E9012118F8010B0B
:100FB0009047206A401C2062381EA7F10107F3DC2D
:100FC0002046FFF7B7F9032011B041E62DE9F04FB5
:100FD00004460D46D21D22F0070089B0D0E90097E3
:100FE0004846394602F0DEF80246F80F01D02D23BC
:100FF00007E02068810701D52B2302E0202101EAC8
:10100000C0038DF820300BB1012000E00020032A3E
:10101000824601D0072A04DB2946204600F0C4F9A5
:101020003FE12078800601D40D2500E0E569C7F393
:101030000A560D2D49DA00214FEA175B08464FF09A
:101040000000002F00F4400007DA00EB80004FF4AE
:10105000400100EBD07001EA60008115012901DD3B
:101060004FF0FF3100224FEA850CBCF1180F06D378
:101070001346ACF118004FF08052C24003E04FF429
:10108000801323FA0CF30CF10C0CBCF1200F04D3E9
:10109000ACF1200C09FA0CF001E007FA0CF0002981
:1010A0004FF0004801DD18B90FE00ED140450CD3D8
:1010B00019EB02095F4121B9404502D19F4329EA5A
:1010C0000209BBEB175F00D0761C2088000502D513
:1010D0007B48784402E07A487844193808AA3023DB
:1010E00002F80A30037C0AF10101002E0AF1020A1B
:1010F00053546A4602DC4FF0300101E04FF03101F9
:101100004FF001088DF8001002D0A6F2FF3603E080
:1011100059EA470100D06B4E002D02DC2178090707
:1011200004D54FF002082E218DF80110C44600218D
:101130000BE0C7F303433F01C35C491C6D1E02F87B
:101140000830052908F1010801DA002DF1DC002141
:101150000CE000EB1973491C1B786D1E082902F87E
:1011600008304FEA091908F1010801DA002DF0DC16
:1011700021688B0602D516E0A8F10108E04505DDDF
:1011800002EB080313F8013C302BF5D0B8F1000F47
:1011900009DD02EB080313F8013C2E2B03D10907EC
:1011A00001D4A8F10108002D05DD3E2102F8081048
:1011B0006D1E08F10108407C002E02F8080008F1BD
:1011C000010804DA2D20764202F8080002E02B2004
:1011D00002F808000A214FF47A70864208F10108EB
:1011E0000BDB96FBF0F3303302F8083096FBF0F39C
:1011F00008F1010800FB136601E0642E0CDB64209B
:1012000096FBF0F3303302F8083096FBF0F308F168
:10121000010800FB136601E00A2E06DB96FBF1F0E5
:10122000303002F8080008F1010896FBF1F001FBEC
:101230001060303002F80800A16908F1010808EBDD
:10124000050202EB0A00081AA0612078C00602D449
:101250002046FFF759F8216A08AE01EB0A00206228
:1012600004E0D4E9012116F8010B9047BAF1010A14
:10127000F7D22078C00602D52046FFF745F86E4623
:1012800009E016F8010B3E280FD0D4E90121904760
:10129000206A401C2062B8F10108F2D22046FFF714
:1012A00049F809B00320BDE8F08F206A2844206285
:1012B00003E0D4E90121302090476D1EEBD3F8E71D
:1012C0004538000002FCFFFF10B5436913B1AFF3CE
:1012D000008001E0FFF71CFB012010BD128800F127
:1012E000240182840022C2840122EDE711684FF0BC
:1012F000FF32E9E7007B00F08000704770B51646CA
:101300000C46054600F044F8036893F801010128F3
:1013100006D0FF2C0FD8185D68B101202C7070BD6D
:10132000D3F807013246214603F207130344284647
:10133000BDE8704018474FF0FF3070BD004870475F
:10134000BC0400207546FFF7F9FFAE46050069466C
:10135000534620F00700854618B020B5FEF79AFFE7
:10136000BDE820404FF000064FF000074FF00008A6
:101370004FF0000B21F00701AC46ACE8C009ACE827
:10138000C009ACE8C009ACE8C0098D467047000050
:1013900010B500F005F8001D10BD00BFA12D000024
:1013A00000487047DC0400202DE9F0411F46044648
:1013B00003260168072A01F4006004DB08B116A5C2
:1013C00005E016A503E008B115A500E015A521F07C
:1013D00010002060A069C01EA0610FB1401EA06176
:1013E0002046FEF791FF4FB1D4E9012138469047DE
:1013F000206A401C2062C01C206206E0206AFAE7D6
:10140000D4E9012115F8010B9047761EF8D2204649
:10141000FEF790FFBDE8F0814E414E006E616E0018
:10142000494E4600696E66002DE9F0478146164632
:101430008AB0354878440DC88DE80D0032487844AC
:10144000801C03AC0DC884E80D0041F69B300844B5
:10145000372190FBF1F290FBF1F5A5F1800501FB3E
:1014600012041B3C02D56442012000E00020DFF89A
:1014700098A080460027FA44AAF1BE0A0EE0E007D1
:101480000AD03246684607EB470101230AEB810187
:1014900000F017FB8DE8070064107F1C002CEED1D4
:1014A000194F7F44AE3F19E0E80715D007EB041051
:1014B0000DF1180A90E80E008AE80E00C068F042AC
:1014C00001D1981908903246012306A903A800F01B
:1014D000F8FA03AB83E807006D10641C002DE3D11C
:1014E0004FF0010332466946B8F1000F03A802D05D
:1014F00000F0D2FA01E000F0E4FAC9E90001C9F80D
:1015000008200AB0BDE8F0877435000010B5044625
:10151000AFF300802046BDE81040FEF7A6BE0000F5
:101520004FF0013C50F8042B51F8043B9A4221D172
:10153000A2EB0C03934313EACC1317D150F8042BFE
:1015400051F8043B9A4215D1A2EB0C03934313EAE2
:10155000CC130BD150F8042B51F8043B9A4209D11B
:10156000A2EB0C03934313EACC13DBD04FF0000043
:10157000704700BFD01A01BAB1FA81F101F0180129
:1015800022FA01F0CB40C1F12001DBB2C0B2C01A97
:101590002CFA01F3D11A914311EAC311E6D1704735
:1015A0005FEA400C08BF91F0000F4FEA8C234FEA2E
:1015B000C12243EA51514FEA1C5018BF00F5F040D8
:1015C0004FEA300018BF41F000415FEA6C5C00F068
:1015D0002980BCF1FF3F08BF40F080407047130CEA
:1015E00006BF12044FF0100C4FF0000C130E04BF96
:1015F00012020CF1080C130F04BF12010CF1040CC1
:10160000930F04BF92000CF1020CD30F04BF5200E1
:101610000CF1010C11464FF00002A0F11F00A0EBED
:101620000C00704711F0004F08BF704731F00041C7
:101630003FF4D5AF0B0C06BF09044FF0100C4FF070
:10164000000C0B0E04BF09020CF1080C0B0F04BFB9
:1016500009010CF1040C8B0F04BF89000CF1020C82
:10166000CB0F04BF49000CF1010CCCF12003A0EB1F
:101670000C0022FA03F302FA0CF241EA030100F132
:101680000100704720F07F4C80EA030023F07F4781
:10169000ACEB070303F57C5300F0004003F1FF03BC
:1016A0002DE980494FEA154B09B44FEA144325EA66
:1016B0000B4E24EA03480FF2042606EB13274908D1
:1016C0003E785FEA320203FB0667C7F5000707FBB7
:1016D00006F64FEA54374FEAD64606F1020607FBF4
:1016E000066CCCF1005C4FEA1C472CEA074C07FB68
:1016F00006F40CFB06F504EB15464FEA961634BFCC
:1017000000204FF000404FEAD13706FB07FC4FEABC
:101710001C4C0CFB0BF7D21B03FB0CF761EB070116
:101720000CFB0EF7B0EB074072EB17420CFB08F70F
:1017300034BFA2EB0742B2EB074261EB17414FEA1D
:101740000C444FEA910706FB07FC4FEA1C4C0CFBCC
:101750000BF7B0EBC74072EB573203FB0CF734BF0B
:10176000A2EBC742B2EBC74261EB57310CFB0EF75D
:10177000B0EBC70072EB57720CFB08F734BFA2EB5B
:10178000C702B2EBC70261EB5771039F4FEA816159
:1017900041EA921104EBCC044FEAD1374FEA82625E
:1017A00006FB07FC42EA90124FEA80604FEA1C4CAD
:1017B0000CFB0BF7D21B03FB0CF761EB07010CFBD7
:1017C0000EF7B0EB074072EB17420CFB08F734BF83
:1017D000A2EB0742B2EB074261EB17414FEA8C558F
:1017E0004FEA910704EB9C2406FB07FC4FEA1C4CD4
:1017F0000CFB0BF7B0EBC74072EB573203FB0CF757
:1018000034BFA2EBC742B2EBC74261EB57310CFBCE
:101810000EF7B0EBC70072EB57720CFB08F734BF42
:10182000A2EBC702B2EBC70261EB577115EB4C2577
:101830004FEA816141EA92114FEA82624FEAD13761
:1018400042EA901206FB07FC44F100044FEA806074
:101850004FEA1C4C0CFB0BF7D21B03FB0CF761EBA4
:1018600007010CFB0EF7B0EB074072EB17420CFBC5
:1018700008F734BFA2EB0742B2EB074261EB174116
:1018800015EB1C154FEA813141EA92414FEA823251
:1018900042EA90424FEA80304FEA0C7644F100046D
:1018A00048EA03434EEA0B484FF0000EB2EB080C37
:1018B00071EB030724BF624639464EEB0E0E4FF024
:1018C000000B0018524149414BEB0B0BB2EB080CDB
:1018D00071EB03077BF1000B24BF624639464EEBE8
:1018E0000E0E4FF0000B0018524149414BEB0B0B11
:1018F000B2EB080C71EB03077BF1000B24BF6246CF
:1019000039464EEB0E0E51EA020718BF46F00106AB
:1019100016EB0E7655F1000254F1000103D5BDE837
:101920008901BDE80088BDE88901BDE80048B61915
:10193000524141EB0101A3F10103704780807F7E9A
:101940007D7C7B7A79787776767574737271717035
:101950006F6E6E6D6C6C6B6A6A69686867666665E7
:101960006464636362616160605F5F5E5E5D5D5C75
:101970005C5B5B5A5A5959585857575656555555E6
:101980005454535352525251515050504F4F4F4E46
:101990004E4D4D4D4C4C4C4B4B4B4A4A4A49494994
:1019A00048484847474747464646454545444444D6
:1019B000444343434342424242414141002B9C46FF
:1019C00030D477002BD01CB54FEA370703B44FF063
:1019D00010004FF01001BAF1000F06D0BCF1000F5B
:1019E000DCBF40F0080040F008014FF000000FBCE1
:1019F000BDE810400BF1010BBBF1010F08BF5FEA1E
:101A0000170722BF12F1010211F101014FF000414D
:101A100043F1000300F0004043EA00007047F9D3AF
:101A20005708D0E746EA064613F1400F4FEA16463C
:101A30001FDD13F1200FDFBF16430A4600212033BC
:101A40005B42BED0C3F1200746EA064602FA07F71A
:101A50004FEA164646EA0706C3F1200722FA03F2C8
:101A600001FA07F721FA03F14FF0000342EA0702F7
:101A7000A7E746EA020646EA06464FEA164646EA5F
:101A80000106BCBF46EA0646360C4FF000034FF095
:101A900000024FF0000194E72DE9804C9A469346EE
:101AA00070B491E8380007C831EA400C48BF34EA06
:101AB000430C03D5FFF7E6FDFFF780FFF0BCBDE860
:101AC000008C2DE9804C9A46934670B491E838001A
:101AD00007C810F0804F08BF13F0804F03D100F00B
:101AE00005F8FFF76BFFF0BCBDE8008C20F07F47E6
:101AF00080EA030023F07F4C07EB0C03A3F57C5333
:101B000000F00040A3F1FE0392F0000F00F0B3805C
:101B100095F0000F00F077802DE901494FEA114060
:101B20004FEA144621EA004800FB06FC24EA064777
:101B300008FB06F607FB08F800FB07F718EB06485A
:101B40004CEB164C4FEA124B18EB07484FEA154680
:101B50004CEB174022EA0B4E0BFB06FC25EA06472E
:101B60000EFB06F607FB0EFE0BFB07F71EEB064E01
:101B70004CEB164C4FF000061EEB074E4CEB174B90
:101B800018EB0B0840F1000018EB0E0B58EB0008A7
:101B900040F100008F1A4FF000013CBFC943661BA3
:101BA00014BFB5EB040C00213CBFC943F61B4FEA40
:101BB00017444EEA8E0E27EA04454FEA1C4704FB01
:101BC00007622CEA074C05FB07F70CFB05F604FB44
:101BD0000CFC16EB074642EB174216EB0C4642EBA9
:101BE0001C421BEB060658EB0202414146EA9E06E8
:101BF00001D5BDE80189B619524141EB0101A3F1BC
:101C00000103BDE801894FEA14454FEA114724EA70
:101C1000054621EA074C05FB07F406FB07F70CFB1A
:101C200006F105FB0CFC11EB074144EB17444FEAAE
:101C3000124711EB0C4144EB1C4422EA074C05FB14
:101C400007F206FB07F70CFB06F605FB0CFC16EB90
:101C5000074642EB174216EB0C4642EB1C456A184E
:101C600054F1000148BF7047B619524141EB0101E0
:101C7000A3F10103704795F0000F37D04FEA1142EE
:101C80004FEA144721EA024624EA074C02FB07F117
:101C900006FB07F70CFB06F402FB0CFC14EB0744F5
:101CA00041EB17414FEA154714EB0C4441EB1C4143
:101CB00025EA074C02FB07F506FB07F70CFB06F6C7
:101CC00002FB0CFC16EB074645EB174516EB0C46E2
:101CD00045EB1C42121951F1000148BF7047B6197B
:101CE000524141EB0101A3F1010370474FEA144552
:101CF0004FEA114724EA054621EA074C05FB07F1A4
:101D000006FB07F70CFB06F24FF0000605FB0CFC88
:101D100012EB074241EB174112EB0C4251EB1C4115
:101D200048BF7047921841EB0101A3F101037047CE
:101D300000BFFEE77047000070B50446002594F828
:101D40002100022803D00420A0630125C1E02068FF
:101D5000006820F00E00216808602068006820F00C
:101D60000100216808605C492068884252D95A49BC
:101D700078392068884201D1012047E0564964390A
:101D80002068884201D1102040E053495039206832
:101D9000884201D1801539E04F493C39206888429A
:101DA00001D1801432E04C4928392068884202D1A0
:101DB0004FF480302AE0484914392068884202D123
:101DC0004FF4801022E044492068884201D1400449
:101DD0001CE042492068884201D1012016E03F49B9
:101DE00014312068884201D110200FE03B4928318E
:101DF0002068884201D1801508E038493C312068CC
:101E0000884201D1801401E04FF480303349091F2A
:101E1000086051E0304978392068884201D10120BA
:101E200047E02D4964392068884201D1102040E004
:101E3000294950392068884201D1801539E0264966
:101E40003C392068884201D1801432E02249283987
:101E50002068884202D14FF480302AE01E491439AC
:101E60002068884202D14FF4801022E01A4920688D
:101E7000884201D140041CE018492068884201D101
:101E8000012016E0154914312068884201D1102044
:101E90000FE0124928312068884201D1801508E0FE
:101EA0000E493C312068884201D1801401E04FF492
:101EB0008030094980394860012084F8210000BF42
:101EC000002084F8200000BF606B10B12046616BD9
:101ED0008847284670BD0000800002400804024088
:101EE0002DE9F847024600239C467BE14FF00108AC
:101EF00008FA03F4D1F8008008EA0400A0427DD17A
:101F0000DFF8F4A2D1F80480A8EB0A09D0453AD052
:101F100014DCB8F1030F50D009DCB8F1000F31D058
:101F2000B8F1010F1CD0B8F1020F49D120E0B8F18F
:101F3000110F18D0B8F1120F42D11EE0B9F5881F69
:101F400025D006DCB9F5803F20D0B9F5801F37D108
:101F50001AE0B9F5001F18D0B9F5041F30D117E009
:101F6000D1F80CC02DE0D1F80C8008F1040C28E069
:101F7000D1F80C8008F1080C23E0D1F80C8008F1AE
:101F80000C0C1EE000BF00BF00BF00BF00BF00BFC1
:101F9000D1F80880B8F1000F02D14FF0040C0BE02B
:101FA000D1F80880B8F1010F03D14FF0080C14618B
:101FB00002E04FF0080C546103E04FF0000C00E029
:101FC00000BF00BFFF2801D8904601E002F10408DD
:101FD0004646FF2802D84FEA830803E0A3F1080829
:101FE0004FEA88084746D6F800804FF00F0909FAF3
:101FF00007F928EA09080CFA07F900E07AE048EA4C
:102000000908C6F80080D1F8048008F08058B8F1BB
:10201000805F6FD100BFDFF8E481D8F8188048F006
:102020000108DFF8D891C9F81880C846D8F8188098
:1020300008F00108CDF8008000BF00BF4FEAB938B2
:102040004FEA930958F829504FEA83784FEA1879F4
:102050004FF00F0808FA09F825EA0805DFF8A08113
:10206000424502D14FF0000824E0DFF89881424554
:1020700002D14FF001081DE0DFF88C81424502D10A
:102080004FF0020816E0DFF88481424502D14FF09C
:1020900003080FE0DFF87881424502D14FF00408D1
:1020A00008E0DFF87081424502D14FF0050801E0F9
:1020B0004FF006084FEA83794FEA197908FA09F8D0
:1020C00048EA0505DFF850814FEA930948F829509E
:1020D000D1F8048008F48038B8F5803F0BD1DFF8E0
:1020E0003C81D8F8008048EA0008DFF83091C9F850
:1020F00000800AE075E0DFF82481D8F8008028EA43
:102100000008DFF81891C9F80080D1F8048008F4BD
:102110000038B8F5003F0ED1DFF8008108F104085F
:10212000D8F8008048EA0008DFF8F09009F10409C7
:10213000C9F800800DE0DFF8E48008F10408D8F861
:10214000008028EA0008DFF8D49009F10409C9F8F2
:102150000080D1F8048008F48018B8F5801F0ED1F3
:10216000DFF8B88008F10808D8F8008048EA0008CD
:10217000DFF8A89009F10809C9F800800DE0DFF840
:102180009C8008F10808D8F8008028EA0008DFF8E9
:102190008C9009F10809C9F80080D1F8048008F48E
:1021A0000018B8F5001F0ED1DFF8708008F10C0898
:1021B000D8F8008048EA0008DFF8609009F10C09BF
:1021C000C9F800800DE0DFF8548008F10C08D8F859
:1021D000008028EA0008DFF8449009F10C09C9F8EA
:1021E00000805B1CD1F8008028FA03F8B8F1000FDA
:1021F0007FF47CAEBDE8F8870000111000100240AB
:1022000000080140000C0140001001400014014092
:1022100000180140001C014008000140000401407A
:102220000AB1016101E00B040361704701480068D5
:102230007047000014000020034800680349097833
:102240000844014908607047140000201C00002069
:1022500010B50848006840F01000064908600520E5
:1022600000F080F80F2000F007F800F02BF80020B5
:1022700010BD00000020024070B504460E480078F2
:102280004FF47A71B1FBF0F00C490968B1FBF0F53D
:10229000284600F0E3FB08B1012070BD102C07D2E6
:1022A00000222146501E00F01EF80548046001E09F
:1022B0000120F2E70020F0E71C00002000000020D1
:1022C00018000020704701460846002809DB00F08E
:1022D0001F0301229A4043099B0003F1E023C3F846
:1022E000002100BF70472DE9F05F80460D4616467D
:1022F000002700F07FFF074639462A46334601F0A3
:102300000700C0F1070ABAF1040F02D94FF0040A1E
:1023100001E0C0F1070AD14600F1040ABAF1070F43
:1023200002D24FF0000A01E0A0F1030AD4464FF0B8
:10233000010A0AFA09FAAAF1010A0AEA020A0AFAE1
:102340000CFA4FF0010B0BFA0CFBABF1010B0BEA93
:10235000030B4AEA0B042146404600F053FFBDE858
:10236000F09F000000BF00F00702064B19684FF60F
:10237000FF031940044B0B4343EA0221014B196050
:1023800000BF70470CED00E00000FA0570B5044690
:102390000D460CB9012070BD5A48006800F00700D6
:1023A000A8420ED25748006820F00700284355493C
:1023B00008600846006800F00700A84201D001202C
:1023C000E9E7207800F0020002281DD1207800F013
:1023D0000400042805D14C48406840F4E0604A49B4
:1023E0004860207800F00800082805D14648406879
:1023F00040F46050444948604348406820F0F00091
:10240000A168084340494860207800F0010078B393
:102410006068012806D13C48006800F4003090B99B
:102420000120B8E76068022806D13748006800F04C
:10243000007040B90120AEE73348006800F00200A8
:1024400008B90120A7E73048406820F00300616820
:1024500008432D494860FFF7E9FE064609E0FFF70B
:10246000E5FE801B41F28831884202D9032092E7C1
:1024700007E02548406800F00C006168B0EB810F70
:10248000EDD12048006800F00700A8420ED91D4891
:10249000006820F0070028431A49086008460068D1
:1024A00000F00700A84201D0012074E7207800F076
:1024B0000400042807D11448406820F4E060E16873
:1024C000084311494860207800F00800082808D126
:1024D0000D48406820F46050216940EAC1000A4973
:1024E000486000F03FF808494968C1F30311074A02
:1024F000515CC8400649086006480068FFF7BCFE0A
:10250000002048E700200240001002408E480008EA
:1025100000000020180000200148006870470000FB
:102520000000002000B5FFF7F7FF04494968C1F338
:102530000221034A515CC84000BD00000010024067
:102540009E48000800B5FFF7E7FF04494968C1F35A
:10255000C221034A515CC84000BD00000010024087
:102560009E480008F0B585B00FF26C0C9CE8E010B6
:1025700001A8A0E8E0101CA52D680095002100220C
:10258000002300240020194D696801F00C05F5B105
:10259000042D02D0082D19D101E0154819E001AD34
:1025A000C1F38346AC5D01F4803555B10F4D6D68C4
:1025B000C5F340451DF805200D4D6543B5FBF2F30D
:1025C00002E00C4D04FB05F3184602E000BF08488A
:1025D00000BF00BF05B0F0BD0203040506070809EF
:1025E0000A0B0C0D0E0F101001020000001002402B
:1025F00000127A0000093D00F8B504460CB901202C
:10260000F8BD207800F00100002878D0F848406834
:1026100000F00C0004280CD0F548406800F00C00D5
:10262000082811D1F248406800F48030B0F5803FAE
:102630000AD1EF48006800F4003000285FD06068DD
:1026400000285CD10120DBE700BF6068B0F5803F67
:1026500006D1E748006840F48030E549086028E08A
:10266000606858B9E248006820F48030E0490860AA
:102670000846006820F4802008601AE06068B0F521
:10268000A02F0BD1DA48006840F48020D8490860B8
:102690000846006840F4803008600AE0D4480068CA
:1026A00020F48030D24908600846006820F4802079
:1026B000086000BF606888B1FFF7B8FD054606E016
:1026C000FFF7B4FD401B642801D9032098E7C848F0
:1026D000006800F400300028F2D010E0FFF7A6FDFB
:1026E000054606E0FFF7A2FD401B642801D9032040
:1026F00086E7BF48006800F400300028F2D1207857
:1027000000F00200022857D1B948406800F00C00E0
:1027100050B1B748406800F00C00082818D1B44800
:10272000406800F4803098B9B148006800F00200B9
:1027300020B12069012801D0012061E7AC48006880
:1027400020F0F800616940EAC100A949086033E05F
:102750002069E8B10120A7490860FFF767FD054639
:1027600006E0FFF763FD401B022801D9032047E77D
:102770009F48006800F002000028F2D09C480068E2
:1027800020F0F800616940EAC1009949086013E04F
:10279000002098490860FFF749FD054606E0FFF76D
:1027A00045FD401B022801D9032029E79048006815
:1027B00000F002000028F2D1207800F0080008287C
:1027C0002DD1A069B8B101208B490860FFF72EFD1B
:1027D000054606E0FFF72AFD401B022801D9032029
:1027E0000EE78348406A00F002000028F2D0012082
:1027F00000F056FB13E000207F490860FFF716FD4C
:10280000054606E0FFF712FD401B022801D9032010
:10281000F6E67748406A00F002000028F2D12078FE
:1028200000F00400042873D100277148C06900F04B
:10283000805070B900BF6E48C06940F080506C494C
:10284000C8610846C06900F08050009000BF00BF1A
:1028500001276A48006800F48070B0B967480068D2
:1028600040F4807065490860FFF7E0FC054606E02B
:10287000FFF7DCFC401B642801D90320C0E65F4859
:10288000006800F480700028F2D000BFE0680128E2
:1028900006D15748006A40F001005549086227E018
:1028A000E06858B95248006A20F0010050490862B7
:1028B0000846006A20F00400086219E0E068052874
:1028C0000BD14B48006A40F00400494908620846B1
:1028D000006A40F0010008620AE04548006A20F002
:1028E0000100434908620846006A20F004000862BB
:1028F00000BFE068A0B1FFF799FC054609E0FFF7CB
:1029000095FC401B41F28831884202D9032077E6CA
:1029100022E03748006A00F002000028EFD012E001
:10292000FFF784FC054608E0FFF780FC401B41F2FE
:102930008831884201D9032062E62D48006A00F000
:1029400002000028F0D1012F05D12948C06920F0EC
:1029500080502749C86100BFE069C8B32448406877
:1029600000F00C00082860D0E069022848D100205F
:1029700020490866FFF75AFC054606E0FFF756FCBB
:10298000401B022801D903203AE61948006800F0EC
:1029900000700028F2D1206AB0F5803F07D11448BA
:1029A000406820F40030A168084311494860D4E928
:1029B000080108430E49496821F4741108430C4981
:1029C000486001200B490866FFF730FC054607E028
:1029D0003DE0FFF72BFC401B022801D903200FE646
:1029E0000348006800F000700028F2D02FE00000DB
:1029F0000010024000004242800442420070004049
:102A0000002014490866FFF711FC054606E0FFF7B1
:102A10000DFC401B022801D90320F1E50E48006897
:102A200000F000700028F2D111E0E069012800D127
:102A3000E6E50948466806F48031206A814204D1FF
:102A400006F47011606A814201D00120D8E50020AF
:102A5000D6E50000000042420010024070B5044676
:102A60002546681EB0F1807F01D301200FE0681E6B
:102A70004FF0E02148610F214FF0FF3000F0C2FB22
:102A800000204FF0E021886107200861002070BD20
:102A9000704700002DE9F04704462068056820686B
:102AA000C668206847694FF00008C14605F00F0866
:102AB000B8F1000F0AD105F0200038B106F020006F
:102AC00020B1204600F030FABDE8F087B8F1000FE1
:102AD00071D007F0010018B906F4907000286AD090
:102AE00005F0010030B106F4807018B1E06B40F0E1
:102AF0000100E06305F0040030B107F0010018B1F7
:102B0000E06B40F00200E06305F0020030B107F036
:102B1000010018B1E06B40F00400E06305F008002C
:102B200048B106F0200010B907F0010018B1E06BC1
:102B300040F00800E063E06B68B305F0200028B1C6
:102B400006F0200010B1204600F0EEF92068406940
:102B5000C0F38019E06B00F0080010B9B9F1000F64
:102B600022D0204600F0C0F92068406900F0400003
:102B7000B0B12068406920F0400021684861606B76
:102B800050B11848616B4863606BFFF7D5F810B11E
:102B9000606B416B88470CE02046FFF779FF08E047
:102BA0002046FFF775FF04E02046FFF771FF002085
:102BB000E06389E7FFE705F0800030B106F08000B0
:102BC00018B1204600F07EFA7EE705F0400030B1F3
:102BD00006F0400018B1204600F096F974E700BFF7
:102BE00072E70000D52E000810B504460CB901208C
:102BF00010BDA06900B100E000BF94F8390028B909
:102C0000002084F83800204600F028F8242084F8BA
:102C100039002068C06820F400502168C860204650
:102C200000F0D2F92068006920F490402168086122
:102C30002068406920F02A00216848612068C06847
:102C400040F400502168C8600020E063202084F830
:102C5000390084F83A000020CAE7000010B586B0B9
:102C600004462849206888424AD100BF00BF264850
:102C7000806940F00400244988610846806900F0BA
:102C80000400019000BF00BF00BF00BF00BF0846A6
:102C9000806940F0040088610846806900F0040003
:102CA000019000BF00BF00BF00BF00BF08468069A1
:102CB00040F4804088610846806900F480400190BB
:102CC00000BF00BF00BF4815029002200390012002
:102CD00004900320059002A90C48FFF701F94FF476
:102CE000806002900020039002A90848FFF7F8F8DE
:102CF0002520FFF7E8FA032211462520FFF7F3FA13
:102D000006B010BD0038014000100240000801402C
:102D100010B5034693F83A0020282FD101B10AB923
:102D2000012010BD00BF93F83800012801D1022016
:102D3000F7E7012083F8380000BF99629A85DA85A9
:102D40000020D863222083F83A0000BF002083F8D7
:102D5000380000BF1868C06840F480701C68E060EC
:102D60001868406940F001001C6860611868C0681C
:102D700040F020001C68E0600020D2E70220D0E78D
:102D800038B504460A492068884210D109480078BD
:102D900000900948006820B101216846064A12687F
:102DA0009047012203490548FFF7B2FF00BF38BD35
:102DB000003801400E00002010000020E801002033
:102DC0002DE9F84F04460E46174699464FF0000A83
:102DD00094F8390020285AD106B117B90120BDE86E
:102DE000F88F00BF94F83800012801D10220F6E7DF
:102DF000012084F8380000BF0020E063212084F81F
:102E00003900FFF713FA8246A784E784A068B0F57B
:102E1000805F04D1206910B90025B04602E0354634
:102E20004FF0000800BF002084F8380000BF1BE00E
:102E30005346002280212046CDF8009000F072F920
:102E400008B10320CBE745B9B8F80000C0F308008B
:102E50002168486008F1020803E02878216848608A
:102E60006D1CE08C401EE084E08C0028E0D15346CD
:102E7000002240212046CDF8009000F053F908B11F
:102E80000320ACE7202084F839000020A7E70220C7
:102E9000A5E7704700BFFEE700BFFEE77047704739
:102EA00008B508490968C9084FF47A72B1FBF2F114
:102EB0004143009100BF00BF00994A1E00920029C3
:102EC000F9D108BD00000020704710B5FFF7B4F934
:102ED00010BD704770B505466C6A0020E085E0843F
:102EE0002046FFF7D5FD70BD0168C96821F49071D7
:102EF0000268D1600168496921F0010102685161ED
:102F0000202180F83A10704710B504462068C06848
:102F100020F040002168C860202084F83900204655
:102F2000FFF7B7FF002010BD70B5044694F83A00D3
:102F3000222847D1A068B0F5805F0CD1206950B934
:102F40000025A66A20684068C0F308003080A06AA7
:102F5000801CA06215E0A56A0026A068B0F5805F1D
:102F600003D0A06828B9206918B920684068287083
:102F700004E02068406800F07F002870A06A401CD0
:102F8000A062E08D401E80B2E085C8B92068C068AC
:102F900020F020002168C8602068C06820F480709C
:102FA0002168C8602068406920F0010021684861FC
:102FB000202084F83A002046FFF7E2FE002070BD92
:102FC0000020FCE70220FAE770B504462168096991
:102FD00021F44051E2681143226811612269A1681D
:102FE0001143626941EA02052168C96841F20C6235
:102FF000914329432268D1602168496921F44071D5
:10300000A2691143226851612D4A2168914202D17F
:10301000FFF798FA01E0FFF785FA00EBC00101EB3A
:10302000001162689200B1FBF2F100EBC00202EB0A
:10303000001263689B00B2FBF3F26423B2FBF3F26D
:1030400002EBC20303EB0212A1EB8201322202EB7C
:1030500001116422B1FBF2F101F0F00100EBC002BA
:1030600002EB001263689B00B2FBF3F26423B2FB35
:10307000F3F201EB021200EBC00101EB00116368F7
:103080009B00B1FBF3F100EBC00303EB0013666898
:10309000B600B3FBF6F36426B3FBF6F303EBC3060B
:1030A00006EB0313A1EB8301322303EB011164232D
:1030B000B1FBF3F101F00F0111442268916070BD82
:1030C00000380140014691F83900212828D188684C
:1030D000B0F5805F0BD1086948B90A6A1088C0F35F
:1030E00008000B685860086A801C086205E00B6ADB
:1030F000581C086218780B685860C88C401E80B253
:10310000C88458B90868C06820F080000B68D8608F
:103110000868C06840F040000B68D8600020704725
:103120000220FCE72DE9F04104460D46174698467B
:10313000069E21E0701CF8B12EB1FFF777F8A0EBE6
:103140000800B04218D92068C06820F4D070216807
:10315000C8602068406920F0010021684861202093
:1031600084F8390084F83A0000BF002084F8380061
:1031700000BF0320BDE8F081206800682840A84215
:1031800001D1012000E00020B842D3D00020F1E7B7
:1031900010B50248FFF77EFC10BD0000E8010020DA
:1031A00000BFFEE7490050EAC12018BF04204A0DC5
:1031B00018BF40F0010040F2FF72B2EB515F08BF50
:1031C00040F00200012808BF0520704741000802B6
:1031D00018BF04200A0E18BF40F001004FF07F42D4
:1031E00032EA010108BF40F00200012808BF0520B3
:1031F0007047000002480068C0F3022070470000DA
:103200000CED00E010B5002804DB0A07130E054A98
:10321000135406E00A07140E034A00F00F031B1FA5
:10322000D45410BD00E400E018ED00E0012101F0ED
:10323000F0BA0021084601F031B86FF05E010807CE
:1032400001F0E7BA2DE9F04D0D4614464FF07F41ED
:10325000B1EB440F9EBF4FF0FF312960BDE8F08D08
:103260004FF0004040EA0421C4F3C750783810F012
:103270001F024A4B4FEA601CC2F120067B44C4F394
:10328000C750A0F178004FEA601003EB800053F8BC
:103290002C3008BFD0E901C612D0D0F804C093404A
:1032A0002CFA06F73B4387680CFA02FC27FA06F86B
:1032B000C06807FA02F2F0404CEA080C42EA000645
:1032C000A3FB0132ACFB01C0A6FB016101EB0C06C4
:1032D0008E4234BF4FF0010C4FF0000CC118614416
:1032E000BCF1000F02D0814202D903E0814201D239
:1032F000012000E00020104400F120024FEA921863
:103300008006CA0C40EA42304F03C5F8008001F045
:10331000A3F88246384601F0B7F86FF0120101F0C9
:1033200078FA0746304601F0AFF86FF0250101F05A
:1033300070FA83463946504600F048FF594600F07F
:1033400045FF00F500666FF30B065146304601F06D
:10335000B5F9394601F0B2F9594601F0A5F910491D
:1033600001F0A6F807460F49304601F0A1F83946AA
:1033700000F02CFF07460C49304601F099F8394619
:1033800000F024FF14F0004F08BFBDE8F08DC8F135
:10339000805180F000402960BDE8F08D6816000083
:1033A000DB0FC92F22AAFD290000C92F30380A28B7
:1033B00001D2012070470020704700BF7047000015
:1033C0002DE9F843044602464F486946B0EB420FE8
:1033D00009D94FF0E640B0EB420F94BF00204FF008
:1033E000FF30009030E0494B22F00040834271D919
:1033F0004749204601F05CF801F026F9804601F0CB
:103400000FF800F0030000904249404601F050F8E8
:1034100005464149404601F04BF806463F494046C3
:1034200001F046F807463E49404601F041F8214682
:1034300001F03AF9394601F041F9314601F03EF91F
:10344000294601F03BF904462546009C002C45DB4B
:10345000294614F0010F08461CD001F029F8064651
:10346000304901F025F8304901F01EF9314601F0EC
:103470001FF82E4900F0AAFE314601F019F829463E
:1034800001F016F8294600F0A1FE14F0020F1CD03E
:10349000BDE8F88301F00CF80546254901F008F86D
:1034A000244900F093FE294601F002F8224900F079
:1034B0008DFE294600F0FCFF4FF07E5100F086FEA5
:1034C00014F0020F08BFBDE8F88380F00040BDE8AB
:1034D000F883FFE71046FFF7B5FEB4E76800B0F1E8
:1034E0007F4F3CBF4FF07E50BDE8F88307D14FF0CF
:1034F0000100FDF73AF9BDE8F843FFF79ABE284608
:10350000BDE8F843FFF792BEB61F927E490E4946CA
:1035100083F9223F1A61342C0020A23300A0FD3928
:103520000000C93F336D4C39DA82083CA0AA2ABE9C
:10353000B93AB2BACA9F2A3DDDFFFFBE30B5024696
:103540000B464FF6FF70002112E0545C60400024EF
:103550000AE000F0010525B14AF2010585EA6000A4
:1035600000E04010651CECB2082CF2DB4C1CA1B250
:103570009942EADB30BD000001461F2903DA034807
:1035800050F82100704702A0FCE700002400002052
:10359000446174615F556E6B6E6F776E0000000062
:1035A00001490860704700000400002010B504467F
:1035B0004FF47A7104FB01F000F002F810BD000036
:1035C00070B5034600224FF0E02675690D4E36684F
:1035D00003FB06F44FF0E026B16910E04FF0E0265F
:1035E000B06988420BD0884202D20E1A324402E0FF
:1035F0002E1A0E4432440146A24200D300E0EDE709
:1036000000BF70BD0400002000BF054A126802F030
:103610004002002AF9D0C2B2014B1B1D1A6070474C
:103620000038014000B585B000BF00BF1E4880696A
:1036300040F008001C4988610846806900F00800D5
:10364000009000BF00BF00BF00BF00BF08468069F8
:1036500040F0400088610846806900F0400000901A
:1036600000BF00BF00BF2020019001200290039006
:103670000320049001A90D48FEF732FC20200190A0
:1036800001A90B48FEF72CFC00BF012220210748AE
:10369000FEF7C6FD00BF00BF012220210448FEF74F
:1036A000BFFD00BF05B000BD00100240000C01408E
:1036B0000018014010B5002000F02CF98C210348BF
:1036C000FDF723F801200149087110BD28020020F0
:1036D00010B50446204600F0C7F810BD2DE9FC41A6
:1036E00004460D461646124F1F2001906A46394681
:1036F00001A800F0D5F910B90020BDE8FC81BDF8A3
:1037000000000B49491FA1F886009DF8040081F8CC
:1037100085009DF804002070BDF800003080BDF8E1
:10372000002039462846FCF789FF0120E5E7000024
:103730002D02002070B504460D460548007900B9F9
:1037400070BD2946204600F02FFA00BFF8E70000C0
:103750002802002070B504460D461646324629461A
:10376000204600F0A5F870BD70B504460848007901
:1037700000B104B970BD257D0DB1052D00DDF9E75F
:10378000AA0021461D2000F093F800BFF2E70000D8
:10379000280200200549097901B9704700B9FCE702
:1037A0000249C1F8880000BFF7E7000028020020A6
:1037B00088B000BFFEF74CFD4FF4E01000F0C4FBF2
:1037C0004820FFF7EDFE4FF4E13000F005FCFFF775
:1037D00029FFFFF76FFF1F48FFF7DCFF1E4800F0CF
:1037E000E7FB002603208DF81400002530E06D1C57
:1037F00006AA1A4907A8FFF771FF064636B1BDF8B9
:10380000182016499DF81C0000F002FC4FF4C87007
:1038100095FBF0F100FB1159484600F01DFE804673
:103820000F4900F03BFD07460E4900F041FE0446FB
:10383000204600F0C5FA00902046FFF7C1FD019038
:1038400002946846FFF790FF2820FFF7AFFE00BF05
:10385000CDE70000C13F000835370008A000002078
:103860000000C843C3F5C8400FB410B596B00F4868
:10387000007918B916B010BC5DF814FB19A81590A2
:10388000502101A8159B189AFCF718FD044600204A
:103890001590002C07DD502C00DB4F24A2B201A9AB
:1038A0000E2000F005F800BFE4E700002802002029
:1038B000F8B505460E4617460E48007900B9F8BD22
:1038C0003A463146284600F03FF8684600F014F8C2
:1038D00004466CB1BDF8000050B10648D0F888002D
:1038E00030B10448BDF80010D0F888202046904739
:1038F00000BFE4E72802002001460548006890F870
:10390000040208800248006800F5827070470000D9
:103910002000002010B504460A48006880F80542DF
:103920000848006800F074F900200649096881F829
:1039300004024FF480710348006800F58270FCF7C0
:10394000C2FE10BD200000202DE9FC470546884638
:103950001446802C01DDBDE8FC874AF2B950ADF871
:1039600004008DF80650E0B28DF80700304800687A
:1039700000F5847606EB04092D4800680199C0F82B
:103980000411224641463046FCF758FE201D81B204
:103990002748006800F58270FFF7D0FD0090BDF861
:1039A0000000A9F80000A01D2149096881F804025F
:1039B0001F48006890F80502002836D01C480068AF
:1039C00090F804121BA0FCF793FC002709E01848AC
:1039D000006800F58270C15D1CA0FCF789FC781CB2
:1039E00087B21348006890F80402B842EFDC19A0CF
:1039F000FCF77EFC2846FFF7BFFD07462B463A46FC
:103A0000214615A0FCF774FC1EA0FCF771FC0027F2
:103A100006E018F807101FA0FCF76AFC781C87B2B4
:103A2000A742F6DB0BA0FCF763FC00BF93E70000A6
:103A30002000002073656E642062756620286C6526
:103A40006E203D20256429203A200A003078253058
:103A5000327820000A00000064617461206C656E99
:103A6000203D2025642C2009206461746120747934
:103A70007065203A20257320283078253032582967
:103A80000A00000073656E64206461746173203AFB
:103A9000200A00003078253032782009000000002C
:103AA0002DE9F04104460E4615462B463246214686
:103AB0001B48006800F0B2F88046B8F1000F24D02F
:103AC0001748006890F80502002826D015A0FCF7DA
:103AD0000FFC2078FFF750FD0746237829883A46E7
:103AE00018A0FCF705FC22A0FCF702FC002705E06B
:103AF000F15D23A0FCF7FCFB781C87B22888B84254
:103B0000F6DC1AA0FCF7F4FB07E00548006890F823
:103B1000050210B11DA0FCF7EBFB4046BDE8F081AB
:103B2000200000200A70726F636573732070726FDB
:103B3000746F636F6C2073756363657373212121E8
:103B4000200A000064617461206C656E203D2025B0
:103B5000642C200920646174612074797065203AB6
:103B60002025732028307825303258290A0000009B
:103B700072656376206461746173203A200A0000E4
:103B800030782530327820090000000070726F63B1
:103B90006573732070726F746F636F6C20666169F8
:103BA0006C656421200A000070B504460D462A4663
:103BB00021460248006800F0E0F870BD20000020B7
:103BC0000146B1F8000100F58070B1F80231C21A67
:103BD000D01702EB10600012A2EB002080B27047F9
:103BE00070B504460D462046FFF7EAFF0646AE4292
:103BF00001DA002070BDB4F802114819C11700EBBA
:103C000011610912A0EB0121A4F802110120F1E7D2
:103C10000021A0F80211A0F8001170472DE9F04F23
:103C2000A5B082460F46904699464FF0040B5EE0E1
:103C3000022324AA0021504600F061F800B95BE09D
:103C4000BDF890004AF2B951884204D00121504693
:103C5000FFF7C6FF4BE0042323AA0021504600F0E3
:103C60004EF800B948E09DF88F40802C04DD01211A
:103C70005046FFF7B5FF3AE0A51DB5F5807F04DD9E
:103C800001215046FFF7ACFF31E05046FFF798FFA7
:103C9000A84200DA30E02B4601AA0021504600F08D
:103CA0002EF800B928E002A8204400880090211DC9
:103CB00001A8FFF743FC0646BDF800108E4204D071
:103CC00001215046FFF78CFF11E09DF88E003870FF
:103CD000A9F80040224602A94046FCF7AFFC29465D
:103CE0005046FFF77DFF012025B0BDE8F08F50461C
:103CF000FFF766FF04289BDA00BF0020F4E72DE9F8
:103D0000F04704460D4690461E462046FFF758FFF2
:103D10008146A819484502DD0020BDE8F087B4F8C7
:103D200002114819C11700EB11610912A0EB012122
:103D30008FB200200CE0E15D08F80010791CCA1772
:103D400001EB12621212A1EB022297B2411C88B25F
:103D5000B042F0DB0120E0E70146B1F8020100F5D6
:103D60008070B1F80031C01A421ED01702EB10600B
:103D70000012A2EB002080B270472DE9F04104460A
:103D80000F4616462046FFF7E7FFB04202DA002052
:103D9000BDE8F081B4F8005100200BE0395C6155BA
:103DA000691CCA1701EB12621212A1EB022295B232
:103DB000411C88B2B042F1DBA4F800510120E7E7D2
:103DC0002DE9F8430446024652486946B0EB420FDB
:103DD00009D94FF0E640B0EB420F94BF00204FF0FE
:103DE000FF30009030E04C4B22F00040834271D90C
:103DF0004A49204600F05CFB00F026FC804600F0BB
:103E00000FFB00F0030000904549404600F050FBD6
:103E100005464449404600F04BFB064642494046B1
:103E200000F046FB07464149404600F041FB214671
:103E300000F03AFC394600F041FC314600F03EFC0F
:103E4000294600F03BFC04462546009C002C45DB3F
:103E5000294614F0010F08461ED000F029FB054644
:103E6000334900F025FB334900F0B0F9294600F052
:103E70001FFB314900F0AAF9294600F019FB4FF069
:103E80007E5100F0A3F914F0020F08BFBDE8F883DB
:103E900080F00040BDE8F88300F00AFB06462749A1
:103EA00000F006FB264900F0FFFB314600F000FB66
:103EB000244900F08BF9314600F0FAFA294600F067
:103EC000F7FA294600F082F914F0020FE0D1BDE8BC
:103ED000F883FFE71046FFF7B5F9B4E76800B0F1E3
:103EE0007F4F09D22846FFF771F9042808BFFFF772
:103EF000A4F92846BDE8F88306D10120FCF735FC7B
:103F0000BDE8F843FFF795B92846BDE8F843FFF749
:103F10008DB90000B61F927E490E494683F9223FB3
:103F20001A61342C0020A23300A0FD390000C93FE3
:103F3000B93AB2BACA9F2A3DDDFFFFBE336D4C3994
:103F4000DA82083CA0AA2ABE30B58FB0054601240B
:103F5000282105A8FCF7D9FB14216846FCF7D5FBFE
:103F600001200590000406900020079002200C908C
:103F7000C1030D910E9505A8FEF73EFB04460CB15A
:103F800000BFFEE70F200090022001900020029069
:103F90004FF4806003900020049002216846FEF7F1
:103FA000F5F904460CB100BFFEE70FB030BD0000CC
:103FB00000B970470149086000BFFAE7100000200F
:103FC00070B504460D4664232A4621460148FEF793
:103FD000F7FE70BDE801002010B5044609480A4903
:103FE00008600846446000218160C1600161816110
:103FF0000C214161FEF7F8FD012204490248FEF759
:1040000087FE10BD00380140E80100200E000020AE
:10401000F7B584B00C4615469DF8100008281ED050
:1040200005DC58B106283FD007284FD142E00928C7
:1040300022D00A2844D00E2848D12EE00020039038
:104040002A46214603A8FCF7F9FA039800F092F8F3
:10405000064632460B461FA0FFF73AFB37E000202A
:104060000190029003902A46214601A8FCF7E6FA47
:104070001CA0FFF72DFB2AE0002003902A462146D2
:1040800003A8FCF7DBFA039800F074F80646324602
:104090000B4619A0FFF71CFB19E02A4621469DF8A4
:1040A0001000FFF757FB12E0012204A91620FFF7CA
:1040B00051FB0CE0012204A91720FFF74BFB06E09F
:1040C000012204A91720FFF745FB00E000BF00BF55
:1040D00007B0F0BD546172676574203A20252E3216
:1040E00066200A004765742050494420706172615F
:1040F0006D73200A000000004765742070657269C6
:104100006F64203A20252E3266206D730A0000006D
:1041100010B500290AD00878002807D0054878444F
:10412000FDF7FEF9002801D0002010BD02487844B8
:1041300010BD0000E60A0000DE0A000010B50029EC
:104140000AD00878002807D005487844FDF7E8F938
:10415000002801D0002010BD0248784410BD0000A6
:10416000D60A0000CE0A00000808A0F500114FEAA8
:104170003101704743004FEAD30C4FEA3C0C4340F7
:104180001FBF40070CF1605113F0FE4F70471CF049
:10419000006F03D100200CF0004170470CF0004389
:1041A00043EA507010B540EACC0000F002FA00BFBC
:1041B000000000924FEA0001FFF7D6BF4FF0004128
:1041C0004FF00000A1F500217047000090EA010FB8
:1041D00048BF81F0004100F17882421A3CBF801A4A
:1041E00089184FEAD0524FF07F4C1CEA410FA2EBE6
:1041F000D15318BF9CEA026F00F03B804FF0004C97
:104200004CEA00204CEA012121FA03FC10EB0C0CD3
:104210001ED202F1FF325FEA1C2040EBC25038BFD1
:1042200070471CF07F0F4FEA400C18BFBCF17F4F66
:1042300038BF7047C3F12003994008BF20F0010048
:10424000BCF17F4F38BF7047A0F1C04000F0F7B914
:104250004FEA3C00000A40EBC25028BF1CF0FF0FA1
:104260004FEA400CE6D018BFBCF17F4F38BF704713
:10427000EAE79CEA026F05D010EA5C0F08BF00F085
:104280000040704710B500F094F900BF64FBBE3EDB
:10429000014800F08CBA00BF0000C07F4FF47F0CD3
:1042A0001CEAD0121EBF1CEAD11392EA0C0F93EA4B
:1042B0000C0F00F0858090EA010F48BF42F4807235
:1042C00040F4000C41F400002CF07F4120F07F40CE
:1042D00000B58142A2EB03020FF2081CACEB504E7A
:1042E000C0F100009EF800E04FEA4E0E00FB0EFC0D
:1042F00038BF49004FEA2C1C02F5FA020CFB0EF302
:104300004FEACE1E4FEA112C4FEAC1210EEB635E3D
:1043100042EB22420EFB0CFC4FEA1C5300FB031144
:104320004FEA112C4FEA01310EFB0CFC4FEADC4C3A
:1043300000FB0C11C14228BF09184CEB03335DF898
:1043400004EB10EB410143EBC250B2F57C0F38BFD8
:10435000704729D512F0F00F1CBF00F1C04000F0EB
:1043600000407047008182838485868788898B8C92
:104370008D8E8F919293959697999A9C9D9FA0A2CE
:10438000A3A5A7A8AAACAEB0B2B3B5B7B9BCBEC01E
:10439000C2C5C7C9CCCED1D4D7D9DCDFE2E6E9ECBF
:1043A000F0F3F7FAFE0000004FEA400C0CF1807CBD
:1043B000BCF17E4F28BF7047B0F1C04000F03FB95C
:1043C00090EA010F0CEAD11348BF42F480726245B3
:1043D00038BF634507D213F47F0F16D080EA01007F
:1043E00000F00040704710B500F0E3F8097EFC3E95
:1043F00000F005B880EA010000F00040704780EA54
:10440000010000F0004000F01AB912F47F0F04BF61
:104410000248704780EA010000F011B90000C07F37
:1044200041000B0ED3F19E0208D950F400034FEA6D
:10443000032323FA02F048BF4042704710B500F052
:10444000B8F800BF49922480002070476FF0004206
:1044500082EA20007047000010F0004148BF40424F
:10446000B0FA80F310FA03F2C3F19D030BD051EAC6
:10447000C35101EB1220530638BF704700F1010011
:1044800008BF20F001007047B0FA80F310FA03F281
:10449000C3F19D030AD0D90501EB1220530638BFA2
:1044A000704700F1010008BF20F0010070470000D4
:1044B0004FF47F0C1CEAD0121EBF1CEAD11392EA03
:1044C0000C0F93EA0C0F00F0478090EA010F48BFF1
:1044D00042F480724FF0004C4CEA00204CEA01217B
:1044E00002EB0302A0FB0113A2F50002002918BF92
:1044F00043F001035B0028BF4FEA330342EB224243
:104500005FEA132C4CEBC2502EBFBCEB436FB2F5ED
:104510007C0F70474FEA036CBCF1004F08BF20F0DE
:104520000100B2F57C0F38BF70470BD582F0FF0257
:1045300012F5803FC8BF704700F1C040D8BF00F0FF
:104540000040704700F5000C5FEA4C0C48BF704714
:10455000B0F1C04000F073B890EA010F0CEAD1133B
:1045600048BF42F48072624538BF634504D280EA96
:10457000010000F00040704710B500F01AF800BFCD
:104580008900013E00F007B800F009B85FEA410C6D
:104590005FEA1C6C08D080EA010000F050B85FEAC6
:1045A000400C5FEA1C6CF6D14FF00040A0F5800093
:1045B00070470EF1020E2EF0030E5EF8044B2442FB
:1045C00004D44FEA4102B2F17F4F11D84FEA4003C1
:1045D000B3F17F4F0CD80ED14FEAD07CB2F17F4FB0
:1045E0000CEB4C0C0CF1020C08BF4CEBD17C04E042
:1045F0004FF0080C01E04FEAD17C0CEB4C0324FA9D
:1046000003F404F00704B4F1040C06D20EEB840C9E
:10461000BDE810404CF0010C6047DFE80CF00708E3
:1046200002024FF00040A0F5800010BD0846420095
:1046300018BFD2F1807288BF00F0004010BDFF218A
:1046400041EAD050C00570475FEA400C5FEA1C6C3D
:10465000BCF17F0314D4D3F1170240F31C804FF058
:10466000010C0CFA02FCACF101030340B3EB5C0259
:1046700020EA030008BF10EA0C0F88BF60447047AF
:10468000B3F1FF3F28BF5FEA002C00F0004088BF75
:1046900040F07E507047BCF1FF0FB8BF704710B5B7
:1046A000FFF787FF40DBB6BE80F0004090EA010FC5
:1046B0007FF593AD81F0004100F007B890EA010F5B
:1046C00048BF81F000413FF588AD421A04D882F01E
:1046D0000042A0EB020011444FEAD0524FF07F4C51
:1046E0001CEA410FA2EBD15318BF9CEA026F4AD0DB
:1046F0004FF0004C4CEA00204CEA012121FA03FC67
:10470000B0EB0C0C0FD412F0FE0F36D05FEA4C0069
:104710001DD5001240EBC25038BF70471CF03F0F50
:1047200018BF70470BE0A2F101025FEA1C2040EBCA
:10473000C25038BF70471CF07F0F18BF7047C3F1DD
:104740002003994014BF401E20F0010070478008EC
:104750004FEA122308BF7047B0FA80FCA2EB0C02AC
:10476000CCF1280C60FA0CF093EA122F04BF00EB96
:10477000C25070474FEAC3707047130A5FEADC10FB
:1047800008BF7047F6E79CEA026F04D010EA5C0F9E
:1047900008BF0020704710B5FFF70BFF40DFF63E63
:1047A00081F000407047FCF7DBBAFCF70FBC0CF05F
:1047B0000F03092B08BF082000F051800A2B0BD0F3
:1047C000082B18BF704708BF1CF0400F0AD04FF0ED
:1047D00000004FF0000170471CF0400F18BF4FF071
:1047E000004070471CF0100F08D020F0704300F01C
:1047F0007F4242EAD3014FEA4370704700F06040C5
:1048000021F07F4242EA000201F07F4040EA7270EC
:1048100070474FF0FF0212EAD0521CBF92F0FF0324
:104820008B42C2BFD14200EBC1507047002A0AD070
:10483000002B0BD0002900F00040A4BF40F0FE4048
:1048400040F40000704700F00040704743024FF012
:104850000B0C18BF4CF0806C7FF41AAD70471CF441
:10486000801F11D01CF4E02F03D06FEACC31490037
:1048700070474FF04050EFF3008222F0704242EA5E
:10488000000282F3008870474FF00000704700007C
:1048900000000000000001020304060708090000F0
:1048A00000000102030430313233343536373839F1
:1048B000414243444546403058003031323334356C
:1048C00036373839616263646566403078000400C9
:1048D00000080000000000000002000100001000BD
:1048E0000000000000000000000000006E83F9A23C
:1048F0002915444ED15727FCC0DD34F5999562DB6C
:104900004190433CAB6351FE30313233343536375E
:1049100038396162636465667870003031323334EF
:104920003536373839414243444546585000000037
:1049300002400000000000A0000000000540000050
:10494000000000C8000000000C4000000000409C77
:1049500000000000194000000020BCBE0000000064
:1049600034400000BFC91B8E00000004B5400000A9
:10497000504BCFD06607E2CF010000006C41000031
:104980003E8251AADFEEA73401000000D9420000A8
:10499000DCB5A0E23A301F97FFFFFFFFB4450000EF
:1049A000FD25A0C8E9A3C14FFFFFFFFFFF3F0000A7
:1049B0000000008000000000FF3F000000000080B9
:1049C00000000000446174615F4368616E6E656C55
:1049D00031000000446174615F4368616E6E656C14
:1049E00032000000446174615F4368616E6E656C03
:1049F00033000000446174615F4368616E6E656CF2
:104A000034000000446174615F4368616E6E656CE0
:104A100035000000446174615F434D445F53657429
:104A20005F50494400000000446174615F43686165
:104A30006E6E656C5F414C4C000000004461746117
:104A40005F557365725F446566696E65640000005A
:104A5000446174615F434D445F5365745F50657298
:104A6000696F6400446174615F4472697665725F66
:104A700054656D7065000000446174615F4D6F7432
:104A80006F725F54656D7065000000004461746171
:104A90005F434D445F526576650000004461746178
:104AA0005F434D445F4A6F670000000044617461DA
:104AB0005F4374726C5F53746F705F517569636BA1
:104AC00000000000446174615F4374726C5F56655E
:104AD0006C000000446174615F4374726C5F4F70DE
:104AE000656E5F56656C0000446174615F4374726B
:104AF0006C5F53656E736F726C6573735F56656C34
:104B000000000000446174615F506F736974696FE5
:104B10006E000000446174615F434D445F53746FE5
:104B200070000000446174615F5265735F53746F7D
:104B300070000000446174615F4374726C5F546F75
:104B400072000000446174615F4374726C5F506F67
:104B500073000000446174615F4374726C5F4F7056
:104B6000656E5F506F730000446174615F546172E1
:104B700067657400446174615F434D445F526573BF
:104B800065740000446174615F43757272656E7490
:104B900000000000446174615F434D445F537461E1
:104BA00072740000446174615F5265735F53746195
:104BB00072740000446174615F434D445F546578D2
:104BC00074000000446174615F434D445F466F723E
:104BD00077000000446174615F56656C6F636974AF
:104BE00079000000304D000800000020A000000007
:104BF0006C010008D04D0008A0000020800A0000D1
:104C0000880100081C00000043000000F8FFFFFFBF
:104C10000C0000000E0000000F0000002E0000003D
:104C20001001000043000000F8FFFFFF004040407B
:104C3000404040404040414141414140404040406F
:104C4000404040404040404040404040400502021B
:104C500002020202020202020202020202202020DA
:104C60002020202020202002020202020202909036
:104C70009090909010101010101010101010101034
:104C80001010101010101010020202020202888888
:104C90008888888808080808080808080808080894
:104CA000080808080808080802020202400000007C
:104CB00000000000000000000000000000000000F4
:104CC00000000000000000000000000000000000E4
:104CD00000000000000000000000000000000000D4
:104CE00000000000000000000000000000000000C4
:104CF00000000000000000000000000000000000B4
:104D000000000000000000000000000000000000A3
:104D10000000000000000000000000000000000093
:104D20000000000000000000000000000000000083
:104D30000024F4000000000000000000000000005B
:104D40000000000000000000100000000100000052
:104D5000B4020020684B0008044B0008D44B000844
:104D6000844B0008784A0008644A0008944B000805
:104D7000744B0008144A0008504A0008144B0008FD
:104D80009C4A0008C44B00088C4A0008B44B000839
:104D9000444B0008C44A0008344B0008544B000838
:104DA000D44A0008E84A0008AC4A0008A44B0008AE
:104DB000244B0008C4490008D4490008E44900080D
:104DC000F4490008044A0008284A00083C4A000840
:0400000508000131BD
:00000001FF
